{
  "contractName": "Revocation",
  "abi": [
    {
      "constant": true,
      "inputs": [
        {
          "name": "_key",
          "type": "string"
        }
      ],
      "name": "GetRevocationId",
      "outputs": [
        {
          "name": "id",
          "type": "uint256"
        }
      ],
      "payable": false,
      "stateMutability": "view",
      "type": "function"
    },
    {
      "constant": true,
      "inputs": [
        {
          "name": "_id",
          "type": "uint256"
        },
        {
          "name": "_revocation",
          "type": "string"
        }
      ],
      "name": "GetRevocation",
      "outputs": [
        {
          "name": "revocation",
          "type": "string"
        },
        {
          "name": "prev",
          "type": "uint256"
        }
      ],
      "payable": false,
      "stateMutability": "view",
      "type": "function"
    },
    {
      "anonymous": false,
      "inputs": [
        {
          "indexed": true,
          "name": "_hash",
          "type": "string"
        },
        {
          "indexed": false,
          "name": "_revocation",
          "type": "string"
        }
      ],
      "name": "Revoke",
      "type": "function",
      "constant": false,
      "outputs": [],
      "payable": false,
      "stateMutability": "nonpayable"
    },
    {
      "constant": true,
      "inputs": [],
      "name": "getCost",
      "outputs": [
        {
          "name": "",
          "type": "uint256"
        }
      ],
      "payable": false,
      "stateMutability": "view",
      "type": "function"
    },
    {
      "constant": false,
      "inputs": [
        {
          "name": "_amount",
          "type": "uint256"
        }
      ],
      "name": "widthdrawTokens",
      "outputs": [],
      "payable": false,
      "stateMutability": "nonpayable",
      "type": "function"
    },
    {
      "constant": false,
      "inputs": [
        {
          "name": "_contract",
          "type": "address"
        },
        {
          "name": "_receiver",
          "type": "address"
        },
        {
          "name": "_cost",
          "type": "uint256"
        }
      ],
      "name": "Initialize",
      "outputs": [
        {
          "name": "",
          "type": "uint256"
        }
      ],
      "payable": false,
      "stateMutability": "nonpayable",
      "type": "function"
    },
    {
      "inputs": [
        {
          "name": "_contract",
          "type": "address"
        },
        {
          "name": "_receiver",
          "type": "address"
        },
        {
          "name": "_cost",
          "type": "uint256"
        }
      ],
      "payable": false,
      "stateMutability": "view",
      "type": "function",
      "constant": true,
      "name": "GetCounter",
      "outputs": [
        {
          "name": "",
          "type": "uint256"
        }
      ]
    },
    {
      "anonymous": false,
      "inputs": [
        {
          "indexed": true,
          "name": "hash",
          "type": "string"
        },
        {
          "indexed": false,
          "name": "revocation",
          "type": "string"
        }
      ],
      "name": "RevokeLog",
      "type": "constructor",
      "payable": false,
      "stateMutability": "nonpayable"
    },
    {
      "anonymous": false,
      "inputs": [
        {
          "indexed": true,
          "name": "hash",
          "type": "string"
        },
        {
          "indexed": false,
          "name": "revocation",
          "type": "string"
        }
      ],
      "name": "RevokeLog",
      "type": "event"
    }
  ],
  "bytecode": "0x6060604052341561000f57600080fd5b33600460006101000a81548173ffffffffffffffffffffffffffffffffffffffff021916908373ffffffffffffffffffffffffffffffffffffffff160217905550610be78061005f6000396000f300606060405260043610610083576000357c0100000000000000000000000000000000000000000000000000000000900463ffffffff16806363d455ad14610088578063a9f75710146100f9578063aa0492ce1461019c578063bd3e19d41461023c578063c006cafe14610265578063db66017314610288578063e4d72a8a146102e9575b600080fd5b341561009357600080fd5b6100e3600480803590602001908201803590602001908080601f01602080910402602001604051908101604052809392919081815260200183838082843782019150505050505091905050610312565b6040518082815260200191505060405180910390f35b341561010457600080fd5b61011a6004808035906020019091905050610387565b6040518080602001838152602001828103825284818151815260200191508051906020019080838360005b83811015610160578082015181840152602081019050610145565b50505050905090810190601f16801561018d5780820380516001836020036101000a031916815260200191505b50935050505060405180910390f35b34156101a757600080fd5b61023a600480803590602001908201803590602001908080601f0160208091040260200160405190810160405280939291908181526020018383808284378201915050505050509190803590602001908201803590602001908080601f01602080910402602001604051908101604052809392919081815260200183838082843782019150505050505091905050610463565b005b341561024757600080fd5b61024f610817565b6040518082815260200191505060405180910390f35b341561027057600080fd5b6102866004808035906020019091905050610821565b005b341561029357600080fd5b6102e7600480803573ffffffffffffffffffffffffffffffffffffffff1690602001909190803573ffffffffffffffffffffffffffffffffffffffff16906020019091908035906020019091905050610999565b005b34156102f457600080fd5b6102fc610af8565b6040518082815260200191505060405180910390f35b60006005826040518082805190602001908083835b60208310151561034c5780518252602082019150602081019050602083039250610327565b6001836020036101000a0380198251168184511680821785525050505050509050019150509081526020016040518091039020549050919050565b61038f610b02565b6000600660008481526020019081526020016000206002016006600085815260200190815260200160002060010154818054600181600116156101000203166002900480601f0160208091040260200160405190810160405280929190818152602001828054600181600116156101000203166002900480156104535780601f1061042857610100808354040283529160200191610453565b820191906000526020600020905b81548152906001019060200180831161043657829003601f168201915b5050505050915091509150915091565b600460149054906101000a900460ff16151561047e57600080fd5b600082511415151561048f57600080fd5b60008151141515156104a057600080fd5b60016000815480929190600101919050555060606040519081016040528060015481526020016005846040518082805190602001908083835b6020831015156104fe57805182526020820191506020810190506020830392506104d9565b6001836020036101000a03801982511681845116808217855250505050505090500191505090815260200160405180910390205481526020018281525060066000600154815260200190815260200160002060008201518160000155602082015181600101556040820151816002019080519060200190610580929190610b16565b509050506001546005836040518082805190602001908083835b6020831015156105bf578051825260208201915060208101905060208303925061059a565b6001836020036101000a038019825116818451168082178552505050505050905001915050908152602001604051809103902081905550816040518082805190602001908083835b60208310151561062c5780518252602082019150602081019050602083039250610607565b6001836020036101000a03801982511681845116808217855250505050505090500191505060405180910390207f63c65bb12e412d834783a01621178275a6addc9bac26eb6c4d1c5ce8d43940c9826040518080602001828103825283818151815260200191508051906020019080838360005b838110156106bb5780820151818401526020810190506106a0565b50505050905090810190601f1680156106e85780820380516001836020036101000a031916815260200191505b509250505060405180910390a26000809054906101000a900473ffffffffffffffffffffffffffffffffffffffff1673ffffffffffffffffffffffffffffffffffffffff166323b872dd33306002546000604051602001526040518463ffffffff167c0100000000000000000000000000000000000000000000000000000000028152600401808473ffffffffffffffffffffffffffffffffffffffff1673ffffffffffffffffffffffffffffffffffffffff1681526020018373ffffffffffffffffffffffffffffffffffffffff1673ffffffffffffffffffffffffffffffffffffffff1681526020018281526020019350505050602060405180830381600087803b15156107f757600080fd5b6102c65a03f1151561080857600080fd5b50505060405180519050505050565b6000600254905090565b600460009054906101000a900473ffffffffffffffffffffffffffffffffffffffff1673ffffffffffffffffffffffffffffffffffffffff163373ffffffffffffffffffffffffffffffffffffffff1614151561087d57600080fd5b60008111151561088c57600080fd5b6000809054906101000a900473ffffffffffffffffffffffffffffffffffffffff1673ffffffffffffffffffffffffffffffffffffffff1663a9059cbb600360009054906101000a900473ffffffffffffffffffffffffffffffffffffffff16836000604051602001526040518363ffffffff167c0100000000000000000000000000000000000000000000000000000000028152600401808373ffffffffffffffffffffffffffffffffffffffff1673ffffffffffffffffffffffffffffffffffffffff16815260200182815260200192505050602060405180830381600087803b151561097a57600080fd5b6102c65a03f1151561098b57600080fd5b505050604051805190505050565b3373ffffffffffffffffffffffffffffffffffffffff16600460009054906101000a900473ffffffffffffffffffffffffffffffffffffffff1673ffffffffffffffffffffffffffffffffffffffff161415156109f557600080fd5b60008373ffffffffffffffffffffffffffffffffffffffff1614151515610a1b57600080fd5b60008273ffffffffffffffffffffffffffffffffffffffff1614151515610a4157600080fd5b600081111515610a5057600080fd5b8060028190555081600360006101000a81548173ffffffffffffffffffffffffffffffffffffffff021916908373ffffffffffffffffffffffffffffffffffffffff160217905550826000806101000a81548173ffffffffffffffffffffffffffffffffffffffff021916908373ffffffffffffffffffffffffffffffffffffffff1602179055506001600460146101000a81548160ff021916908315150217905550505050565b6000600154905090565b602060405190810160405280600081525090565b828054600181600116156101000203166002900490600052602060002090601f016020900481019282601f10610b5757805160ff1916838001178555610b85565b82800160010185558215610b85579182015b82811115610b84578251825591602001919060010190610b69565b5b509050610b929190610b96565b5090565b610bb891905b80821115610bb4576000816000905550600101610b9c565b5090565b905600a165627a7a72305820783e0f67dce5279a17e4f393b21f81607342c7f2f57ff738ecbd5342584251b20029",
  "source": "pragma solidity ^0.4.17;\n\nimport \"./INTToken.sol\";\n\ncontract Revocation {\n    INTToken tokenContract;\n    struct RevocationObj {\n        uint id;\n        uint prev;\n        string revocation;\n    }\n    uint counter;\n    uint cost; // cost of Revocations\n    address receiver;\n    address owner;\n    bool initialized;\n\n    mapping (string => uint) idRevocation;\n    mapping (uint => RevocationObj) RevocationChain;\n\n    event RevokeLog(string indexed hash, string revocation);\n\n    // constructor\n    function Revocation() public {\n        owner = msg.sender;\n    }\n\n    function Initialize(address _contract, address _receiver, uint _cost) public {\n        require(owner == msg.sender);\n        require(_contract != 0x0);\n        require(_receiver != 0x0);\n        require(_cost > 0);\n        cost = _cost;\n        receiver = _receiver;\n        tokenContract = INTToken(_contract);\n        initialized = true;\n    }\n\n    function Revoke(string _hash, string _revocation) public {\n        require(initialized);\n        require(bytes(_hash).length != 0);\n        require(bytes(_revocation).length != 0);\n        counter++;\n        RevocationChain[counter] = RevocationObj(counter,idRevocation[_hash],_revocation);\n        idRevocation[_hash] = counter;\n        RevokeLog(_hash, _revocation);\n        tokenContract.transferFrom(msg.sender, this, cost);\n    }\n    \n    function GetCounter() public constant returns (uint) {\n        return counter;\n    }\n\n    function GetRevocationId(string _key) public constant returns (uint id) {\n        return idRevocation[_key];\n    }\n\n    function GetRevocation(uint _id) public constant returns (string revocation, uint prev) {\n        return (RevocationChain[_id].revocation, RevocationChain[_id].prev);\n    }\n\n    function getCost() constant public returns(uint) {\n        return cost;\n    }\n\n    function widthdrawTokens(uint _amount) public {\n        require(msg.sender == owner);\n        require(_amount > 0);\n        tokenContract.transfer(receiver, _amount);\n    }\n\n}\n",
  "sourcePath": "/home/pawal/dev/INTToken/contracts/Revocation.sol",
  "compiler": {
    "name": "solc",
    "version": "0.4.18+commit.9cf6e910.Emscripten.clang"
  },
  "schemaVersion": "1.0.1",
  "updatedAt": "2018-01-05T14:42:53.837Z"
}