{
  "contractName": "RevocationWithToken",
  "abi": [
    {
      "constant": true,
      "inputs": [
        {
          "name": "_hash",
          "type": "string"
        }
      ],
      "name": "getRevoked",
      "outputs": [
        {
          "name": "",
          "type": "string"
        }
      ],
      "payable": false,
      "stateMutability": "view",
      "type": "function"
    },
    {
      "constant": false,
      "inputs": [
        {
          "name": "_hash",
          "type": "string"
        },
        {
          "name": "_revocation",
          "type": "string"
        }
      ],
      "name": "Revoke",
      "outputs": [],
      "payable": false,
      "stateMutability": "nonpayable",
      "type": "function"
    },
    {
      "constant": true,
      "inputs": [
        {
          "name": "_amount",
          "type": "uint256"
        }
      ],
      "name": "getCost",
      "outputs": [
        {
          "name": "",
          "type": "uint256"
        }
      ],
      "payable": false,
      "stateMutability": "view",
      "type": "function"
    },
    {
      "anonymous": false,
      "inputs": [
        {
          "indexed": true,
          "name": "_amount",
          "type": "uint256"
        },
        {
          "indexed": false,
          "name": "_cost",
          "type": "uint256"
        }
      ],
      "name": "widthdrawTokens",
      "type": "function",
      "payable": false,
      "stateMutability": "nonpayable",
      "constant": false,
      "outputs": []
    },
    {
      "anonymous": false,
      "inputs": [
        {
          "indexed": true,
          "name": "hash",
          "type": "string"
        },
        {
          "indexed": false,
          "name": "revocation",
          "type": "string"
        }
      ],
      "name": "getNumRevocations",
      "type": "function",
      "constant": true,
      "outputs": [
        {
          "name": "",
          "type": "uint256"
        }
      ],
      "payable": false,
      "stateMutability": "view"
    },
    {
      "inputs": [
        {
          "name": "_contract",
          "type": "address"
        },
        {
          "name": "_receiver",
          "type": "address"
        },
        {
          "name": "_cost",
          "type": "uint256"
        }
      ],
      "payable": false,
      "stateMutability": "nonpayable",
      "type": "constructor"
    },
    {
      "anonymous": false,
      "inputs": [
        {
          "indexed": true,
          "name": "hash",
          "type": "string"
        },
        {
          "indexed": false,
          "name": "revocation",
          "type": "string"
        }
      ],
      "name": "RevokeLog",
      "type": "event"
    }
  ],
  "bytecode": "0x6060604052341561000f57600080fd5b6040516060806109a1833981016040528080519060200190919080519060200190919080519060200190919050506000600354118015610066575060008273ffffffffffffffffffffffffffffffffffffffff1614155b151561006e57fe5b8060038190555081600460006101000a81548173ffffffffffffffffffffffffffffffffffffffff021916908373ffffffffffffffffffffffffffffffffffffffff16021790555033600560006101000a81548173ffffffffffffffffffffffffffffffffffffffff021916908373ffffffffffffffffffffffffffffffffffffffff16021790555082600260006101000a81548173ffffffffffffffffffffffffffffffffffffffff021916908373ffffffffffffffffffffffffffffffffffffffff1602179055505050506108578061014a6000396000f30060606040526004361061006d576000357c0100000000000000000000000000000000000000000000000000000000900463ffffffff16806368581bf414610072578063aa0492ce14610148578063bd3e19d4146101e8578063c006cafe14610211578063f89aef2014610234575b600080fd5b341561007d57600080fd5b6100cd600480803590602001908201803590602001908080601f0160208091040260200160405190810160405280939291908181526020018383808284378201915050505050509190505061025d565b6040518080602001828103825283818151815260200191508051906020019080838360005b8381101561010d5780820151818401526020810190506100f2565b50505050905090810190601f16801561013a5780820380516001836020036101000a031916815260200191505b509250505060405180910390f35b341561015357600080fd5b6101e6600480803590602001908201803590602001908080601f0160208091040260200160405190810160405280939291908181526020018383808284378201915050505050509190803590602001908201803590602001908080601f01602080910402602001604051908101604052809392919081815260200183838082843782019150505050505091905050610370565b005b34156101f357600080fd5b6101fb6105eb565b6040518082815260200191505060405180910390f35b341561021c57600080fd5b61023260048080359060200190919050506105f5565b005b341561023f57600080fd5b610247610768565b6040518082815260200191505060405180910390f35b610265610772565b6000826040518082805190602001908083835b60208310151561029d5780518252602082019150602081019050602083039250610278565b6001836020036101000a03801982511681845116808217855250505050505090500191505090815260200160405180910390208054600181600116156101000203166002900480601f0160208091040260200160405190810160405280929190818152602001828054600181600116156101000203166002900480156103645780601f1061033957610100808354040283529160200191610364565b820191906000526020600020905b81548152906001019060200180831161034757829003601f168201915b50505050509050919050565b600082511415151561037e57fe5b600081511415151561038c57fe5b600260009054906101000a900473ffffffffffffffffffffffffffffffffffffffff1673ffffffffffffffffffffffffffffffffffffffff166318160ddd6000604051602001526040518163ffffffff167c0100000000000000000000000000000000000000000000000000000000028152600401602060405180830381600087803b151561041a57600080fd5b6102c65a03f1151561042b57600080fd5b5050506040518051905050806000836040518082805190602001908083835b60208310151561046f578051825260208201915060208101905060208303925061044a565b6001836020036101000a038019825116818451168082178552505050505050905001915050908152602001604051809103902090805190602001906104b5929190610786565b50600260009054906101000a900473ffffffffffffffffffffffffffffffffffffffff1673ffffffffffffffffffffffffffffffffffffffff166323b872dd33306003546000604051602001526040518463ffffffff167c0100000000000000000000000000000000000000000000000000000000028152600401808473ffffffffffffffffffffffffffffffffffffffff1673ffffffffffffffffffffffffffffffffffffffff1681526020018373ffffffffffffffffffffffffffffffffffffffff1673ffffffffffffffffffffffffffffffffffffffff1681526020018281526020019350505050602060405180830381600087803b15156105b957600080fd5b6102c65a03f115156105ca57600080fd5b50505060405180519050506001600081548092919060010191905055505050565b6000600354905090565b600560009054906101000a900473ffffffffffffffffffffffffffffffffffffffff1673ffffffffffffffffffffffffffffffffffffffff163373ffffffffffffffffffffffffffffffffffffffff1614151561064e57fe5b60008111151561065a57fe5b600260009054906101000a900473ffffffffffffffffffffffffffffffffffffffff1673ffffffffffffffffffffffffffffffffffffffff1663a9059cbb600460009054906101000a900473ffffffffffffffffffffffffffffffffffffffff16836000604051602001526040518363ffffffff167c0100000000000000000000000000000000000000000000000000000000028152600401808373ffffffffffffffffffffffffffffffffffffffff1673ffffffffffffffffffffffffffffffffffffffff16815260200182815260200192505050602060405180830381600087803b151561074957600080fd5b6102c65a03f1151561075a57600080fd5b505050604051805190505050565b6000600154905090565b602060405190810160405280600081525090565b828054600181600116156101000203166002900490600052602060002090601f016020900481019282601f106107c757805160ff19168380011785556107f5565b828001600101855582156107f5579182015b828111156107f45782518255916020019190600101906107d9565b5b5090506108029190610806565b5090565b61082891905b8082111561082457600081600090555060010161080c565b5090565b905600a165627a7a723058204e62ef75d2e4018c0c983c923cd6779bfec73bfc1a4be9cc835998c4193aadf60029",
  "source": "pragma solidity ^0.4.17;\n\nimport \"./INTToken.sol\";\n\ncontract RevocationWithToken {\n    mapping (string => string) _revocations;\n\tuint numRevocations; // if we want total number of revocations\n\tINTToken tokenContract;\n\tuint cost; // cost of Revocations\n\taddress receiver;\n\taddress owner;\n\n    event RevokeLog(string indexed hash, string revocation);\n\n    // _contract is the address of the deployed INT tokenContract\n    // _receiver is the address that is allowed to withdraw tokens from this contract\n    // _cost is the cost for doing revocations\n    function RevocationWithToken(address _contract, address _receiver, uint _cost) public {\n        assert(cost > 0 && _receiver != 0x0);\n        cost = _cost;\n        receiver = _receiver;\n        owner = msg.sender;\n        tokenContract = INTToken(_contract);\n    }\n\n    function Revoke(string _hash, string _revocation) public {\n        assert(bytes(_hash).length != 0);\n        assert(bytes(_revocation).length != 0);\n        tokenContract.totalSupply();\n        _revocations[_hash] = _revocation;\n        tokenContract.transferFrom(msg.sender, this, cost);\n\n        numRevocations++;\n    }\n\n    function getRevoked(string _hash) constant public returns(string) {\n        return _revocations[_hash];\n    }\n    \n    function getCost() constant public returns(uint) {\n        return cost;\n    }\n    \n    function getNumRevocations() constant public returns(uint) {\n        return numRevocations;\n    }\n    \n    function widthdrawTokens(uint _amount) public {\n        assert(msg.sender == owner);\n        assert(_amount > 0);\n        tokenContract.transfer(receiver, _amount);\n    }\n}\n",
  "sourcePath": "/home/pawal/dev/INTToken/contracts/RevocationWithToken.sol",
  "compiler": {
    "name": "solc",
    "version": "0.4.18+commit.9cf6e910.Emscripten.clang"
  },
  "schemaVersion": "1.0.1",
  "updatedAt": "2017-11-30T14:06:10.715Z"
}