{
  "contractName": "tokigCaller",
  "abi": [
    {
      "constant": true,
      "inputs": [
        {
          "name": "trans",
          "type": "uint256"
        }
      ],
      "name": "getTrans",
      "outputs": [
        {
          "name": "amount",
          "type": "uint256"
        },
        {
          "name": "successful",
          "type": "bool"
        }
      ],
      "payable": false,
      "stateMutability": "view",
      "type": "function"
    },
    {
      "constant": false,
      "inputs": [
        {
          "name": "receiver",
          "type": "address"
        },
        {
          "name": "amount",
          "type": "uint256"
        }
      ],
      "name": "transferCoin",
      "outputs": [
        {
          "name": "",
          "type": "uint256"
        }
      ],
      "payable": false,
      "stateMutability": "nonpayable",
      "type": "function"
    },
    {
      "constant": false,
      "inputs": [
        {
          "name": "receiver",
          "type": "address"
        },
        {
          "name": "amount",
          "type": "uint256"
        }
      ],
      "name": "sendCoin",
      "outputs": [
        {
          "name": "",
          "type": "uint256"
        }
      ],
      "payable": false,
      "stateMutability": "nonpayable",
      "type": "function"
    },
    {
      "inputs": [
        {
          "name": "token",
          "type": "address"
        }
      ],
      "payable": false,
      "stateMutability": "nonpayable",
      "type": "constructor"
    },
    {
      "payable": false,
      "stateMutability": "nonpayable",
      "type": "fallback"
    }
  ],
  "bytecode": "0x6060604052341561000f57600080fd5b6040516020806107c58339810160405280805190602001909190505033600260006101000a81548173ffffffffffffffffffffffffffffffffffffffff021916908373ffffffffffffffffffffffffffffffffffffffff16021790555080600360006101000a81548173ffffffffffffffffffffffffffffffffffffffff021916908373ffffffffffffffffffffffffffffffffffffffff16021790555050610708806100bd6000396000f300606060405260043610610057576000357c0100000000000000000000000000000000000000000000000000000000900463ffffffff1680637fa15637146100675780638dde60fa146100a957806390b98a11146100ff575b341561006257600080fd5b600080fd5b341561007257600080fd5b6100886004808035906020019091905050610155565b60405180838152602001821515151581526020019250505060405180910390f35b34156100b457600080fd5b6100e9600480803573ffffffffffffffffffffffffffffffffffffffff169060200190919080359060200190919050506101a0565b6040518082815260200191505060405180910390f35b341561010a57600080fd5b61013f600480803573ffffffffffffffffffffffffffffffffffffffff169060200190919080359060200190919050506104ef565b6040518082815260200191505060405180910390f35b60008060008084815260200190815260200160002060010154915060008084815260200190815260200160002060030160149054906101000a900460ff169050818191509150915091565b60008060008060015481526020019081526020016000209050600360009054906101000a900473ffffffffffffffffffffffffffffffffffffffff168160000160006101000a81548173ffffffffffffffffffffffffffffffffffffffff021916908373ffffffffffffffffffffffffffffffffffffffff160217905550828160010181905550338160020160006101000a81548173ffffffffffffffffffffffffffffffffffffffff021916908373ffffffffffffffffffffffffffffffffffffffff160217905550838160030160006101000a81548173ffffffffffffffffffffffffffffffffffffffff021916908373ffffffffffffffffffffffffffffffffffffffff1602179055508060000160009054906101000a900473ffffffffffffffffffffffffffffffffffffffff1673ffffffffffffffffffffffffffffffffffffffff166323b872dd3330866000604051602001526040518463ffffffff167c0100000000000000000000000000000000000000000000000000000000028152600401808473ffffffffffffffffffffffffffffffffffffffff1673ffffffffffffffffffffffffffffffffffffffff1681526020018373ffffffffffffffffffffffffffffffffffffffff1673ffffffffffffffffffffffffffffffffffffffff1681526020018281526020019350505050602060405180830381600087803b15156103b057600080fd5b6102c65a03f115156103c157600080fd5b505050604051805190508160030160146101000a81548160ff0219169083151502179055508060000160009054906101000a900473ffffffffffffffffffffffffffffffffffffffff1673ffffffffffffffffffffffffffffffffffffffff1663a9059cbb85856000604051602001526040518363ffffffff167c0100000000000000000000000000000000000000000000000000000000028152600401808373ffffffffffffffffffffffffffffffffffffffff1673ffffffffffffffffffffffffffffffffffffffff16815260200182815260200192505050602060405180830381600087803b15156104b557600080fd5b6102c65a03f115156104c657600080fd5b505050604051805190505060016000815480929190600101919050555060015491505092915050565b60008060008060015481526020019081526020016000209050600360009054906101000a900473ffffffffffffffffffffffffffffffffffffffff168160000160006101000a81548173ffffffffffffffffffffffffffffffffffffffff021916908373ffffffffffffffffffffffffffffffffffffffff160217905550828160010181905550838160030160006101000a81548173ffffffffffffffffffffffffffffffffffffffff021916908373ffffffffffffffffffffffffffffffffffffffff1602179055508060000160009054906101000a900473ffffffffffffffffffffffffffffffffffffffff1673ffffffffffffffffffffffffffffffffffffffff1663a9059cbb85856000604051602001526040518363ffffffff167c0100000000000000000000000000000000000000000000000000000000028152600401808373ffffffffffffffffffffffffffffffffffffffff1673ffffffffffffffffffffffffffffffffffffffff16815260200182815260200192505050602060405180830381600087803b151561068857600080fd5b6102c65a03f1151561069957600080fd5b505050604051805190508160030160146101000a81548160ff021916908315150217905550600160008154809291906001019190505550600154915050929150505600a165627a7a72305820fcaaf54bf172238d78bcd60051f7503963ba48a952c3188b8fe0dabe8733e1310029",
  "source": "pragma solidity ^0.4.17;\n/*\n * ERC20 interface\n * see https://github.com/ethereum/EIPs/issues/20\n */\ncontract ERC20 {\n  function balanceOf(address who) public constant returns (uint);\n  function allowance(address owner, address spender) public constant returns (uint);\n\n  function transfer(address to, uint value) public returns (bool ok);\n  function transferFrom(address from, address to, uint value) public returns (bool ok);\n  function approve(address spender, uint value) public returns (bool ok);\n  event Transfer(address indexed from, address indexed to, uint value);\n  event Approval(address indexed owner, address indexed spender, uint value);\n}\n\ncontract TokigToken is ERC20 {\n    string public constant symbol = \"TOK\";\n    string public constant name = \"Den tokigaste tokenen\";\n    uint8 public constant decimals = 18;\n    uint256 totalSupply = 1000000;\n    address public owner;\n    \n    mapping(address => uint256) balances;\n    mapping(address => mapping (address => uint256)) allowed;\n\n    event Transfer(address indexed _from, address indexed _to, uint256 _value);\n    event Approval(address indexed _owner, address indexed _spender, uint256 _value);\n\n    function TokigToken() public{\n        owner = msg.sender;\n        balances[owner] = totalSupply;\n    }\n\n    function balanceOf(address _owner) public constant returns (uint balance) {\n        return balances[_owner];\n    }\n\n    function transfer(address _to, uint _amount) public returns (bool ok) {\n        if (balances[msg.sender] >= _amount && _amount > 0) {\n            balances[msg.sender] -= _amount;\n            balances[_to] += _amount;\n            Transfer(msg.sender, _to, _amount);\n            return true;\n        } else {\n            return false;\n        }\n    }\n\n    function transferFrom(address _from, address _to, uint _amount ) public returns (bool success) {\n        if (balances[_from] >= _amount && allowed[_from][msg.sender] >= _amount && _amount > 0 && balances[_to] + _amount > balances[_to]) {\n            balances[_from] -= _amount;\n            allowed[_from][msg.sender] -= _amount;\n            balances[_to] += _amount;\n            Transfer(_from, _to, _amount);\n            return true;\n        } else {\n            return false;\n        }\n    }\n\n    function approve(address _spender, uint _amount) public returns (bool success) {\n        allowed[msg.sender][_spender] = _amount;\n        Approval(msg.sender, _spender, _amount);\n        return true;\n    }\n\n    function allowance(address _owner, address _spender) public constant returns (uint remaining) {\n        return allowed[_owner][_spender];\n    }\n}\n\ncontract tokigCaller {\n\tstruct transfer {\n\t\tTokigToken coinContract;\n\t\tuint amount;\n\t\taddress sender;\n\t\taddress recipient;\n\t\tbool successful;\n\t\tuint balance;\n\t}\n\tmapping(uint => transfer) transfers;\n\tuint numTransfers;\n\taddress owner;\n\taddress tokenContract;\n\t\n\tfunction () public {\n\t    revert();\n\t}\n\t\n\tfunction tokigCaller(address token) public {\n\t    owner = msg.sender;\n\t    tokenContract = token;\n\t    \n\t}\n\tfunction sendCoin(address receiver, uint amount) public returns(uint) {\n\t\ttransfer storage t = transfers[numTransfers]; //Creates a reference t\n\t\tt.coinContract = TokigToken(tokenContract);\n\t\tt.amount = amount;\n\t\tt.recipient = receiver;\n\t\tt.successful = t.coinContract.transfer(receiver, amount);\n\t\tnumTransfers++;\n\t\treturn numTransfers;\n\t}\n\t\n\tfunction transferCoin(address receiver, uint amount) public returns(uint) {\n\t\ttransfer storage t = transfers[numTransfers]; //Creates a reference t\n\t\tt.coinContract = TokigToken(tokenContract);\n\t\tt.amount = amount;\n\t\tt.sender = msg.sender;\n\t\tt.recipient = receiver;\n\t\tt.successful = t.coinContract.transferFrom(msg.sender, this, amount);\n\t\tt.coinContract.transfer(receiver, amount);\n\t\tnumTransfers++;\n\t\treturn numTransfers;\n\t}\n\n\t\n\tfunction getTrans(uint trans) public constant returns(uint amount, bool successful) {\n\t    amount = transfers[trans].amount;\n\t    successful = transfers[trans].successful;\n\t    return (amount, successful);\n\t}\n}\n\n",
  "sourcePath": "/home/pawal/dev/INTToken/contracts/testcontractZ.sol",
  "compiler": {
    "name": "solc",
    "version": "0.4.18+commit.9cf6e910.Emscripten.clang"
  },
  "schemaVersion": "1.0.1",
  "updatedAt": "2017-11-30T11:16:53.642Z"
}